:020000040800F2
:1000000030090020294C0008B9080008BB08000886
:10001000BF080008C3080008C70800080000000067
:10002000000000000000000000000000CB080008F5
:10003000CD08000800000000CF080008D108000823
:10004000434C0008434C0008434C0008434C000854
:10005000434C0008434C0008434C0008434C000844
:10006000434C0008434C0008434C0008434C000834
:10007000434C0008434C0008434C0008434C000824
:10008000434C0008434C0008434C0008434C000814
:1000900005710008434C0008434C0008434C00081D
:1000A000434C0008434C0008434C0008434C0008F4
:1000B000434C0008434C0008434C0008434C0008E4
:1000C000434C0008434C0008434C0008434C0008D4
:1000D000434C0008034900088D430008434C0008C6
:1000E000434C0008434C0008F9700008434C0008DA
:1000F000434C0008434C0008434C0008434C0008A4
:10010000434C0008434C0008434C0008434C000893
:100110007F040008434C0008434C0008434C00088F
:10012000434C0008434C0008434C0008434C000873
:10013000DFF80CD008F00EF900480047AF010008C6
:10014000300900202DE9F05F4FF0000A04F0C0F8FC
:10015000834607F03EFF06460022FE4B07F0ABFE4B
:1001600004460022FC4B07F02EFE804607F07EFF7F
:100170008246FA48007838B9504607F050FFF849EF
:1001800008700220F5490870F548007807F00BFF69
:100190000546514607F003FD04464FF0824107F043
:1001A0008BFF02D20120BDE8F09F0020FBE78CB05E
:1001B00000240025A34600200B900026092004F00F
:1001C00038FB482004F0D2F94FF4A06005F0C2FAE1
:1001D0004FF4E131482004F0CFFB4FF4967004F067
:1001E000FDF94FF4E13004F02DFC4FF4967004F06B
:1001F000F5F94FF4165004F07CFC00F05BFC00F0C5
:1002000089FC4FF4E16004F0E9F9D6A008F040F968
:10021000002007F05BF84FF4967004F0DFF901203E
:1002200007F054F80120D249086040F6B83004F0D5
:10023000D5F9D0A008F02CF906F088FF06F066FF8B
:1002400006F02CF9C82004F0C9F9CEA008F020F976
:1002500000F0ADFD0DE0C82004F0C0F9C82004F0A6
:10026000BDF9681CC5B20A2D03DDCAA008F010F95B
:1002700003E002F0EFFF0028EDD100BF052D02DC06
:10028000C7A008F005F94FF4967004F0A7F9C8A0CC
:1002900008F0FEF804F003F958B1C9A008F0F8F826
:1002A0000120CC49087004F0D7F8CBA008F0F0F892
:1002B00002E0CEA008F0ECF80020AD490860012073
:1002C000CF49C1F89401C348007820B104F0D5F8B3
:1002D000CCA008F0DDF8D1E00AF1010000F0FF0A3F
:1002E00008AA09A90AA803F002F8089807F0ABFECB
:1002F00007468846099807F0A6FECDE906010A9848
:1003000007F0A1FECDE90278CDE90401DDE906019F
:10031000CDE90001C0A0DDE9042308F0B9F8C44923
:10032000089807F0C9FE04D81CB9012400209049A0
:100330000860012C08D1BF49089807F0B3FE03D22A
:10034000022401208A490860022C08D1B849089883
:1003500007F0B2FE03D20324002085490860032C75
:1003600008D1B449089807F09DFE03D2002400206C
:100370007F490860BAF1640F04DDFFF7E3FE8146B0
:100380004FF0000A022C04D0B9F1010F01D146F060
:100390000106022C06D0A849089807F083FE01D276
:1003A00046F00206022C12D04FF082410A9807F064
:1003B00083FE0CD24FF082410A9807F0EDFB07460E
:1003C00007F014FE032190FBF1F0C0B20B90022C59
:1003D00012D04FF041410A9807F064FE0CD24FF062
:1003E00082410A9807F086FB074607F0FFFD0321CC
:1003F00090FBF1F0C0B20B90022C12D04FF0824172
:10040000099807F059FE0CD24FF08241099807F085
:10041000C3FB074607F0EAFD032190FBF1F000F073
:10042000FF0B022C12D04FF04141099807F03AFE21
:100430000CD24FF08241099807F05CFB074607F0A9
:10044000D5FD032190FBF1F000F0FF0B022C0AD048
:10045000B9F1020F07D15F48007820B104F00DF820
:1004600068A008F015F80023594630460B9A06F0AC
:10047000DDFE0026B34600200B9081462CE71FB519
:100480006E48008800F0200000285CD06B48001DFA
:1004900000886B4908706B48008840F40040694947
:1004A00008800846008800F4004000284CD06448CA
:1004B000017865A007F0ECFF0020624908806048E1
:1004C0000078E1280AD004DC02283ED003283DD180
:1004D00087E1E2283BD0E328F9D16EE15B48007860
:1004E000012835D100200090019002901D23024682
:1004F0000146039006F0BCFE0A2004F06FF80020CD
:10050000009001900290034602460146039006F0D7
:10051000AFFE0A2004F062F800201D23CDE9003070
:100520000290034602460146039006F0A1FE0A200F
:1005300004F054F800200090019002901423024629
:100540000146039084E09AE186E140E153E1B9E09D
:10055000B7E0000000A08E40E0BDC0400E000020CB
:100560000F000020555342CFC8B6CFBFAA0A0000E3
:1005700094012342555342D4D9B4CEC1ACBDD30A61
:1005800000000000B3F5CABCBBAF4D505536303546
:10059000300A00004D55506572726F720A000000FB
:1005A0004D5055B3F5CABCBBAFB3C9B9A60A0000DC
:1005B00047534DC4A3BFE9D7A2B2E10A000000002F
:1005C00047534DC4A3BFE9D7A2B2E1B3C9B9A60A44
:1005D0000000000000000020B6CCD0C5CEAA5044D8
:1005E00055C4A3CABDB3C9B9A60A000047534DC438
:1005F000A3BFE9D7A2B2E1CAA7B0DC0A000000009D
:1006000000802142B7A2CBCDD2BBCCF5B6CCCFFB7C
:10061000CFA2B3C9B9A60000D5E6CAB5D6B5A3BA6C
:10062000252E316620252E316620252E31660A00C2
:10063000000034420000A0400000C8C1004C00404F
:10064000C001002002000020256300000C000020F3
:1006500006F00EFE0A2003F0C1FF0020009001907A
:1006600002900A2302460146039006F001FE0A208A
:1006700003F0B4FF00200090019002901C2302467A
:100680000146039006F0F4FD0A2003F0A7FF0020C6
:100690000090019002901B2302460146039006F051
:1006A000E7FD0A2003F09AFF0020009001900290DD
:1006B0001C2302460146039006F0DAFD0A2003F0EF
:1006C0008DFFC8E06E480078012875D100200090A9
:1006D000019002901A2302460146039006F0C8FDDD
:1006E0000A2003F07BFF00200090019002901D2360
:1006F00002460146039006F0BBFD0A2003F06EFFA0
:1007000000200090019002900346024601460390AB
:1007100006F0AEFD0A2003F061FF00201D23CDE9A5
:1007200000300290034602460146039006F0A0FD09
:100730000A2003F053FF00200090019002901C2338
:1007400002460146039006F093FD0A2003F046FF9F
:10075000002000900190029005230246014603907C
:1007600006F086FD0A2003F039FF0020009001907A
:1007700002901A2302460146039006F079FD0A20F2
:1007800003F02CFF00200090019002901D230246F0
:100790000146039006F06CFD0A2003F01FFF0020C5
:1007A000009001900290112302460146039006F04A
:1007B0005FFD0A2003F012FF4DE03248007808B1D7
:1007C00003F05BFEAFF2C41007F062FE43E00120CD
:1007D0002B49087000202C4908602CA007F058FE17
:1007E00039E00020264908700120274908602BA025
:1007F00007F04EFE2FE02248007801282AD12B482E
:1008000000782B4908710846C0798979284A5279BD
:10081000274B1B79264CCDE90032CDE90210E37855
:10082000A2786178207806F023FD00202149087025
:1008300009E000201E491F4A127888541D4800789C
:10084000401C1C4908701B4800780828F1DB0A206E
:1008500003F0C4FE00BF00BF1548C0791449897970
:10086000134A5279124B1B79114CCDE90032CDE974
:100870000210E378A2786178207806F0F9FC1FBDB9
:100880000C0000200000002094812142B4F2BFAA95
:10089000BCFCC5CCB3C9B9A600000000B9D8B1D51D
:1008A000BCFCC5CCB3C9B9A600000000C001002043
:1008B000040000200D000020704700BFFEE700BFCD
:1008C000FEE700BFFEE700BFFEE7704770477047D6
:1008D000704700000CB50020019000906C48006843
:1008E00040F480306A49086000BF6948006800F43D
:1008F000003000900198401C0190009818B90198B0
:10090000B0F5A06FF1D16248006800F4003010B17A
:100910000120009001E0002000900098012843D1C0
:100920005C48006840F010005A49086008460068BA
:1009300020F0030008600846006840F002000860EC
:100940005348406852494860084640684860084635
:10095000406840F4806048600846406820F47C109D
:1009600048600846406840F4E8104860084600685F
:1009700040F08070086000BF4548006800F00070DB
:100980000028F9D04248406820F003004049486000
:100990000846406840F00200486000BF3C4840689C
:1009A00000F00C000828F9D10CBD10B5FFF792FF3C
:1009B00010BD10B53648006840F0010034490860A9
:1009C0000846406834490840314948600846006894
:1009D000324908402E4908600846006820F480200B
:1009E00008600846406820F4FE0048604FF41F008D
:1009F0008860FFF7DAFF4FF000602949086010BDFA
:100A000010B5002100200022214B5B6803F00C018F
:100A100021B1042906D0082928D107E0214B224C16
:100A2000236027E01F4B204C236023E0184B5B68BA
:100A300003F47010164B5B6803F48032022303EB5F
:100A4000904022B9194B4343174C23600DE0104BE3
:100A50005B6803F4003323B1144B4343124C23600F
:100A600003E0104B4343104C236003E00D4B0E4C4E
:100A7000236000BF00BF064B5B68C3F303130C4C3D
:100A8000E15C094B1B68CB40074C236010BD0000A4
:100A900000100240002002400000FFF8FFFFF6FEB9
:100AA00008ED00E000127A001000002000093D006F
:100AB0001400002008B50121082004F0E3FB012107
:100AC000402004F0DFFB10208DF803002020ADF85B
:100AD000000003208DF8020069460C4804F016F966
:100AE00020210A4804F0BFF910208DF803002020CF
:100AF000ADF8000003208DF802006946044804F0B8
:100B000005F92021024804F0AEF908BD000C0140AF
:100B10000018014008B50121442004F0B3FB18205F
:100B2000ADF8000048208DF803006946534804F0F2
:100B3000EDF80120ADF8000028208DF8030069468B
:100B40004F4804F0E3F803F0A1FB08BD2DE9F84F8E
:100B500082464FF0000BBAF1000F02D00120494944
:100B6000087003F0B5FB009007F033FA80460022CE
:100B7000454B07F0A0F906460022444B07F023F945
:100B8000044607F073FA83464148007838B958465E
:100B900007F045FA3F49087002203D49087039487E
:100BA0000078002846D01021344804F042F9B8B14A
:100BB0000821324804F03DF990B10121304804F099
:100BC00038F901280CD03348007807F0ECF90546D5
:100BD000594606F0E4FF04462F4907F06DFA29D282
:100BE0000A2003F0FBFC002026490870102123484E
:100BF00004F01FF960B12748007807F0D4F90546E2
:100C0000594606F0CCFF0446234907F055FA02D2B4
:100C10000120BDE8F88F0821184804F00AF908B946
:100C20000220F6E70121164804F003F9012822D139
:100C30000320EEE71021114804F0FBF801281AD137
:100C400008210E4804F0F5F8012814D101210C48C0
:100C500004F0EFF878B90F48007807F0A4F90546DA
:100C6000594606F09CFF04460B4907F01BFA02D8D0
:100C70000120044908700020CBE700000018014063
:100C8000000801402400002000A08E40E0BDC040CC
:100C900025000020260000200000A04070B5054679
:100CA0000C4600F0EAF9D02000F091FA00F022FAA8
:100CB00018B100F000FA012070BD284600F087FA54
:100CC00000F018FA204600F082FA00F013FA18B18A
:100CD00000F0F1F90120EFE700F0EDF90020EBE77B
:100CE00070B504460025BC2C01DB012510E0622C08
:100CF00001DB02250CE02A2C01DB032508E0142C83
:100D000001DB042504E00A2C01DB052500E00625B3
:100D100029461A20FFF7C2FF70BD70B50446B4F52E
:100D20007A7F01DD4FF47A74042C00DA04244FF446
:100D30007A7090FBF4F0401EC5B229461920FFF7E7
:100D4000ADFF0546264604EBD671C1F34F00FFF711
:100D5000C7FF70BD70B5044600F08FF9D02000F0D9
:100D600036FA00F0C7F9204600F031FA00F0C2F977
:100D700000F083F9D12000F02AFA00F0BBF900203E
:100D800000F04EFA054600F096F9284670BD10B501
:100D90000446E006010E1C20FFF780FF10BD10B5D1
:100DA0000446E006010E1B20FFF778FF10BD10B5CA
:100DB0009B48806940F0040099498861994800681F
:100DC00020F07040974908600846006840F04050A5
:100DD0000860012003F018FD00209349086000F02E
:100DE00032F980216B20FFF759FF642003F0F6FBF6
:100DF00000216B20FFF752FF0320FFF7D0FF0020F8
:100E0000FFF7C5FF3220FFF788FF00213820FFF7EA
:100E100045FF00216A20FFF741FF00212320FFF753
:100E20003DFF80213720FFF739FF7520FFF792FF44
:100E30000446682C0BD101216B20FFF72FFF002106
:100E40006C20FFF72BFF3220FFF767FF01E0012046
:100E500010BD0020FCE72DE9F04106460F46144680
:100E60001D4600F00AF9002141EA4601C8B200F02F
:100E7000AEF900F03FF920B100F01DF90120BDE806
:100E8000F081384600F0A3F900F034F900F0F5F8ED
:100E9000012101EB4601C8B200F099F900F02AF9EE
:100EA0000DE0012C04D1002000F0BAF9287003E015
:100EB000012000F0B5F92870601EC4B26D1C002C32
:100EC000EFD100F0F8F80020D9E72DE9F84F6B4694
:100ED000022241216820FFF7BEFF9DF801009DF826
:100EE000001040EA01200FFA80FA504607F060F83F
:100EF000804600224D4B06F0DEFF06464C4A4D4B25
:100F000006F0C0FE044607F0B1F883464A49584649
:100F100006F048FE044607F069F800B2BDE8F88F15
:100F20002DE9FC4104460D4616466B460622432138
:100F30006820FFF790FF0746BFB99DF801009DF8B4
:100F4000001040EA012000B220809DF803009DF8C7
:100F5000021040EA012000B228809DF805009DF8AB
:100F6000041040EA012000B230803846BDE8FC8120
:100F70002DE9FC4104460D4616466B4606223B21F0
:100F80006820FFF768FF0746BFB99DF801009DF88C
:100F9000001040EA012000B220809DF803009DF877
:100FA000021040EA012000B228809DF805009DF85B
:100FB000041040EA012000B230803846BDE8FC81D0
:100FC0002DE9F04105460E461746984600F055F8C3
:100FD000002141EA4501C8B200F0F9F800F08AF8B2
:100FE00020B100F068F80120BDE8F081304600F043
:100FF000EEF800F07FF800240CE018F8040000F090
:10100000E6F800F077F818B100F055F80120EBE7AA
:10101000601CC4B2BC42F0DB00F04DF80020E3E7F6
:101020000010024004080140BC012142004075400C
:10103000A4703D0AD74342400000C84210B50220C8
:1010400003F0B0FA10BD8E48806940F008008C496A
:1010500088618C48006820F47F408A49086008460F
:10106000006840F44C50086086480830006840F43E
:101070004060844908310860704710B581480068B5
:1010800020F470407F4908600846006840F44050F2
:10109000086001207C4908607C49C1F8A801FFF77D
:1010A000CDFF002078490860FFF7C8FF002077498E
:1010B000C1F8A80110BD10B57248006820F4704056
:1010C000704908600846006840F4405008600020FD
:1010D0006D49091F08606D49C1F8AC01FFF7AEFF0B
:1010E00001206949091F08606849C1F8AC01FFF790
:1010F000A5FF10BD10B500246248006820F47040C0
:10110000604908600846006840F40040086001201B
:101110005D490860FFF792FF01205C49C1F8A80112
:10112000FFF78CFF07E0601CC4B2FA2C03DDFFF769
:10113000C2FF012010BD5448803800680028F2D159
:101140005149091F086000BFF4E710B500204E495F
:10115000091F08604B48006820F470404949086046
:101160000846006840F44050086000204749C1F834
:10117000AC01FFF763FF01204349091F0860FFF737
:101180005DFF00204149C1F8A80110BD10B5002045
:101190003D49091F08603B48006820F47040394908
:1011A00008600846006840F4405008600120374954
:1011B000C1F8AC01FFF742FF01203349091F086065
:1011C000FFF73CFF00203149C1F8A80110BD70B500
:1011D00004462C48006820F470402A4908600846FC
:1011E000006840F44050086000202749091F08604B
:1011F000002512E0E009244908606006040E012081
:101200002249C1F8A801FFF719FF00201E49091F54
:101210000860FFF713FF681CC5B2082DEADB70BD3C
:1012200070B5054600241748006820F47040154941
:1012300008600846006840F400400860002615E099
:1012400000201149091F0860FFF7F8FE01200F492F
:10125000C1F8A8016006040E0B488038006808B188
:10126000601CC4B2FFF7EAFE701CC6B2082EE7DBB2
:1012700015B9FFF78BFF01E0FFF767FF204670BD50
:1012800000100240040C0140AC8121420080214248
:1012900038B50446F74890F82400C0B114B10220D4
:1012A000009001E000200090F24A1268D17BF14AE0
:1012B000526810786B460122FFF782FE10B14FF0A2
:1012C000FF3038BD9DF80010EA48417423E0E9483A
:1012D000807A10B94FF0FF30F3E724B1E548407C45
:1012E00008B10020EDE714B10120009001E00020DA
:1012F0000090E04A1268D17BDE4A526810786B4653
:101300000122FFF75DFE10B14FF0FF30D9E79DF8E5
:101310000010D84841740020D3E738B500241FE0FE
:10132000D4480068C07AA04204D0D2480068407D0A
:10133000A04200D112E0CF49496808786B460122EB
:101340002146FFF788FD10B14FF0FF3038BD9DF802
:1013500000202146C8A007F09BF800BF601CC4B263
:10136000C44840680079A042DADC0020EEE770B59E
:1013700004460D46BF480068C07AA04204D0BD486C
:101380000068407DA04202D14FF0FF3070BDB948E7
:1013900040680079A04202DC4FF0FF30F6E7B54923
:1013A000496808782B4601222146FFF754FDEDE7F6
:1013B00038B50446AF4890F82300A04201D1002080
:1013C00038BD14B13020009001E000200090A94801
:1013D000807C20B19DF8000040F002000090A548FC
:1013E00090F8220020B19DF8000040F080000090AD
:1013F000A04A1268117D9F4A526810786B460122FC
:10140000FFF7DEFD10B14FF0FF30D9E7994880F8C3
:1014100023400020D4E738B5044604F0700010B132
:101420000120009005E014B10020009001E0402070
:101430000090904A1268917C8E4A526810786B46F0
:101440000122FFF7BDFD20B100218A488172481EAC
:1014500038BD9DF8000020F040018648017300204F
:10146000009004F0400020B99DF8000040F0040016
:10147000009004F0200020B99DF8000040F0020028
:10148000009004F0100020B99DF8000040F0010029
:10149000009004F0080020B99DF8000040F03800EA
:1014A0000090744A1268D17C724A526810786B4678
:1014B0000122FFF785FD20B100216E488172481E90
:1014C000C6E724B1082C02D00020FFF771FF69485D
:1014D000847200210175322003F080F80020B7E704
:1014E00038B504466348807CA04201D1002038BD55
:1014F000002C46D05F4A126811795E4A5268107813
:101500006B460122FFF7A7FC10B14FF0FF30EEE76A
:101510009DF8000020F020000090564A12681179D2
:10152000544A526810786B460122FFF749FD10B10A
:101530004FF0FF30DBE7032003F050F8022000906B
:101540004C4890F8220020B19DF8000040F0800047
:101550000090484890F8230020B19DF8000040F02A
:1015600030000090434A1268117D424A5268107858
:101570006B460122FFF724FD002851D04FF0FF30C9
:10158000B5E73C4A126811793A4A526810786B46BE
:101590000122FFF760FC10B14FF0FF30A7E735489C
:1015A000807A00F0010028B19DF8000040F0200092
:1015B000009004E09DF8000020F0200000902D4AEB
:1015C000126811792B4A526810786B460122FFF796
:1015D000F7FC10B14FF0FF3089E7032002F0FEFF67
:1015E000244890F8220010B18020009001E00020F3
:1015F0000090204890F8230020B19DF8000040F0B2
:10160000300000901B4A1268117D1A4A5268107807
:101610006B460122FFF7D4FC10B14FF0FF3066E7B4
:1016200014488474002062E708B51248807A10B923
:101630004FF0FF3008BD002000900E4A1268D17BA9
:101640000C4A526810786B460122FFF7B9FC10B1C2
:101650004FF0FF30EEE7074A12685179054A5268A9
:1016600010786B460122FFF7ABFC68B14FF0FF30FA
:10167000E0E7000028000020252335783A202523C4
:1016800035780D0A00000000F84A12681179F74A0F
:10169000526810786B460122FFF792FC10B14FF0B0
:1016A000FF30C7E7F14890F82400002853D00C2001
:1016B0000090EE4A12681179EC4A526810786B4635
:1016C0000122FFF77DFC10B14FF0FF30B2E732206E
:1016D00002F084FFC0200090E448807A00F001000E
:1016E00020B19DF8000040F020000090DF4A126811
:1016F0001179DE4A526810786B460122FFF760FCD0
:1017000010B14FF0FF3095E7D848407C10B102206F
:10171000009001E000200090D44A1268D17BD34AA7
:10172000526810786B460122FFF74AFC10B14FF067
:10173000FF307FE700200090CC4A12685179CB4AF5
:10174000526810786B460122FFF73AFC002855D00A
:101750004FF0FF306EE704200090C44A1268117900
:10176000C24A526810786B460122FFF729FC10B17B
:101770004FF0FF305EE7BD48807C20B9BB48807ADF
:1017800000F0010010B94020009001E060200090BE
:10179000B64A12681179B54A526810786B46012230
:1017A000FFF70EFC10B14FF0FF3043E7322002F09C
:1017B00015FFAE48407C10B10120009001E00020F0
:1017C0000090AA4A1268D17BA84A526810786B46EA
:1017D0000122FFF7F5FB10B14FF0FF302AE7A34AD3
:1017E00012685179A14A52681078A04B1033012237
:1017F000FFF7E6FB10B14FF0FF301BE7002019E7C1
:1018000070B50446002624F00104984890F824009E
:1018100008B1002070BD9548807A10B94FF0FF30B4
:10182000F8E79248057C807A204090490874084681
:10183000007CA04202D04FF0FF3600E0002614B931
:101840008A48007D18B10120FFF722FD02E0002048
:10185000FFF71EFD3CB1FFF7E7FE20B1834805749A
:101860004FF0FF30D6E73046D4E738B504467F481E
:10187000807A10B94FF0FF3038BDBC2C02DB01205C
:10188000009015E0622C02DB0220009010E02A2C70
:1018900002DB032000900BE0142C02DB04200090FC
:1018A00006E00A2C02DB0520009001E006200090F3
:1018B0006E48C07A9DF80010884201D10020DBE715
:1018C0006A4A12689178694A526810786B46012218
:1018D000FFF776FB10B14FF0FF30CDE79DF8001019
:1018E0006248C1720020C7E738B50446282C02DDE3
:1018F0004FF0FF3038BDDCB90020FFF759FD002064
:101900008DF8000007208DF80100584A1268917C7C
:10191000564A526810786B460222FFF751FB10B10D
:101920004FF0FF30E6E70021504801750020E1E765
:101930000120FFF73DFD20208DF80000012C06D18D
:1019400000208DF801000520FFF78FFF17E0052C20
:1019500006DC01208DF801000520FFF786FF0EE070
:10196000142C06DC02208DF801000A20FFF77DFF11
:1019700005E003208DF801001420FFF776FF9DF8A5
:101980000100072101EB8010C0B28DF80100374A39
:101990001268917C354A526810786B460222FFF734
:1019A0000FFB10B14FF0FF30A4E708212F488172E0
:1019B00000210173012101750020FFF721FF0020A4
:1019C00098E738B504462948807A10B94FF0FF30BF
:1019D00038BD264890F8240010B14FF0FF30F7E7EB
:1019E0002248007D50B134B1282C04DCE0B2FFF76E
:1019F0007BFF0020ECE70020FFF776FF042C01DAE4
:101A0000042404E0B4F57A7F01DD4FF47A744FF4D6
:101A10007A7090FBF4F0401EC0B20090134A126836
:101A20005178124A526810786B460122FFF7C8FAC3
:101A300010B14FF0FF30CBE79DF80000401C4FF491
:101A40007A7191FBF0F081B20848C1810146C989E1
:101A50004810FFF70AFF0020BAE738B504460348EC
:101A6000807A28B94FF0FF3038BD000028000020F0
:101A7000022C06D0042C07D0082C08D0102C0CD136
:101A800008E0002000900BE00820009008E0102003
:101A9000009005E01820009002E04FF0FF30E3E7EF
:101AA00000BFF948407A9DF80010B0EBE10F01D17A
:101AB0000020D9E7F44A1268D179F34A52681078C5
:101AC0006B460122FFF77CFA10B14FF0FF30CBE7F5
:101AD0009DF80000C110EC4841720020C4E738B501
:101AE0000446E948807A10B94FF0FF3038BDFA2C2F
:101AF00009D0B4F5FA7F09D0B4F57A7F09D0B4F5EE
:101B0000FA6F0CD108E0002000900BE00820009054
:101B100008E01020009005E01820009002E04FF04F
:101B2000FF30E3E700BFD848007A9DF80010B0EB23
:101B3000E10F01D10020D9E7D34A12689179D24A46
:101B4000526810786B460122FFF73AFA10B14FF055
:101B5000FF30CBE79DF80000C010CB490872002091
:101B6000C4E71CB580208DF80000C74A1268917C3C
:101B7000C54A526810786B460122FFF721FA10B16E
:101B80004FF0FF301CBD642002F028FD00208DF8CE
:101B90000000BD4A1268917CBB4A526810786B46BF
:101BA0000122FFF70DFA10B14FF0FF30EAE7B64A15
:101BB0001268917DB44A526810786B460622FFF78E
:101BC0004AF910B14FF0FF30DCE79DF80500C0077F
:101BD000400F9DF8031001F0010140EA41009DF81B
:101BE000011001F0010140EA010494B1012C03D17C
:101BF0000121A548C17431E0022C03D10021A24883
:101C0000C1742BE02146A1A006F042FC4FF0FF304A
:101C1000B8E79D4A1268D1789B4A526810786B46A3
:101C20000122FFF718F910B14FF0FF30AAE79DF835
:101C3000000000F00F042CB99E4806F029FC4FF07C
:101C4000FF309FE7042C06D19BA006F021FC012168
:101C50008D48C17402E000218B48C174FF218A487D
:101C60008172FF2088490872FF2187484172C17242
:101C70004FF6FF71C181FF2101748174012101734D
:101C800080F82210002180F823104175017516306C
:101C9000016041608160163880F8241080F82510BA
:101CA000C1844FF4FA60FFF71AFF10B14FF0FF3014
:101CB00068E70220FFF7D1FE10B14FF0FF3061E777
:101CC0002A20FFF7D2FD10B14FF0FF305AE7322043
:101CD000FFF777FE10B14FF0FF3053E70020FFF71A
:101CE0008FFD10B14FF0FF304CE70020FFF7F8FBFD
:101CF00010B14FF0FF3045E70020FFF78CFB0020CC
:101D000040E770477CB504460D465F48807A00F096
:101D1000700010B94FF0FF307CBD5B4A1268117B38
:101D2000594A526810786B460622FFF794F810B1B2
:101D30004FF0FF30F0E79DF801009DF8001040EAF9
:101D4000012000B220809DF803009DF8021040EAB7
:101D5000012000B260809DF805009DF8041040EA63
:101D6000012000B2A08015B12846FFF7CAFF00206D
:101D7000D2E77CB504460D464348807A00F008005F
:101D800010B94FF0FF307CBD3F4A1268517B3E4A8C
:101D9000526810786B460622FFF75DF810B14FF0DD
:101DA000FF30F0E79DF801009DF8001040EA0120A7
:101DB00000B220809DF803009DF8021040EA012047
:101DC00000B260809DF805009DF8041040EA0120F3
:101DD00000B2A08015B12846FFF793FF0020D2E79C
:101DE0002DE9FE4F05460C462748807A18B94FF07A
:101DF000FF30BDE8FE8F244A1268917B224A526868
:101E0000107802AB0222FFF726F810B14FF0FF3036
:101E1000EFE79DF809009DF8081040EA012006B29E
:101E200014B12046FFF76DFF17494968C88806F0CE
:101E3000BAF8154901904968B1F9080006F0AAF806
:101E40008346304606F0A6F85946009005F0A4FEF9
:101E50008246019905F0D8FE81461F4905F04AFEE9
:101E600080464FF08F4105F09DFE074606F0BEF814
:101E700028600020BDE710B588B004461CB94FF0BB
:101E8000FF3008B010BD29E028000020556E7375A2
:101E900070706F7274656420736F667477617265B9
:101EA0002070726F64756374207265762025642ECD
:101EB0000A00000080A3000848616C662073656E0C
:101EC0007369746976697479207061727420666FC1
:101ED000756E642E0A00000000000C42206830B9C4
:101EE000606820B9A06810B9002008B010BDFA4998
:101EF0004968087806AB03221146FEF7ACFF10B123
:101F00004FF0FF30F1E79DF81800082101EB201099
:101F100000F00F00ADF800009DF8190001EB201053
:101F200000F00F00ADF802009DF81A0001EB201040
:101F300000F00F00ADF8040020684100BDF900007A
:101F4000403091FBF0F000B2ADF810006068410045
:101F5000BDF90200403091FBF0F000B2ADF8120084
:101F6000A0684100BDF90400403091FBF0F000B2E0
:101F7000ADF81400D8494968087806AB0622114626
:101F8000FEF769FF10B14FF0FF30AEE79DF8190082
:101F90009DF8181040EA012000B2ADF808009DF845
:101FA0001B009DF81A1040EA012000B2ADF80A00AB
:101FB0009DF81D009DF81C1040EA012000B2ADF80C
:101FC0000C00BDF81000BDF80810084400B2ADF8D0
:101FD0001000BDF81200BDF80A10084400B2ADF8B8
:101FE0001200BDF81400BDF80C10084400B2ADF8A2
:101FF0001400BDF81000000A8DF81800BDF810009C
:10200000C0B28DF81900BDF81200000A8DF81A0050
:10201000BDF81200C0B28DF81B00BDF81400000A14
:102020008DF81C00BDF81400C0B28DF81D00AA493F
:102030004968087806AB06221146FEF7C1FF10B1C9
:102040004FF0FF3051E700204FE70146A248007AE9
:1020500030B1012807D0022809D003280FD10AE0A7
:10206000FA2008800EE04FF4FA7008800AE04FF47E
:102070007A70088006E04FF4FA60088002E00020E1
:10208000088000BF00BF0020704701469248407A98
:1020900030B1012807D0022808D003280CD108E06D
:1020A000022008700BE00420087008E00820087087
:1020B00005E01020087002E04FF0FF30704700BFCD
:1020C0008548C07C18B108784006000E08700020D2
:1020D000F4E701468048C07A082817D2DFE800F00C
:1020E0001704070A0D101318BC20088013E06220A3
:1020F000088010E02A2008800DE0142008800AE003
:102100000A20088007E00520088004E000BF00BF27
:102110000020088000BF00BF0020704701466E48C5
:1021200090F8240010B14FF0FF3070476A48C08922
:1021300008800020F9E7014600200880401E704713
:1021400001464FF0FF30704701466348007A30B1D6
:10215000012807D0022808D003280CD108E05F48E6
:1021600008600BE05E48086008E05E48086005E033
:102170005D48086002E04FF0FF30704700BF00206C
:10218000FBE701465448407A30B1012808D00228C4
:102190000AD0032810D10BE04FF4804008800EE0F5
:1021A00041F69C7008800AE04FF48050088006E0F9
:1021B0004FF40060088002E04FF0FF30704700BF2E
:1021C0004548C07C10B10888401008800020F5E721
:1021D00001464148007C08700020704701463E4897
:1021E000807A10B10120087001E000200870002002
:1021F000704738B504463848807A10B94FF0FF3040
:1022000038BD354A1268117C334A526810786B46E3
:102210000222FEF720FE10B14FF0FF30F0E79DF8EC
:1022200001009DF8001040EA012000B2208000204B
:10223000E6E72DE9FE4F0746884692461D46DDF843
:1022400030B000260024244890F8240010B1601E0D
:10225000BDE8FE8F002028701F48807A10B94FF02B
:10226000FF30F5E71C48007C10B94FF0FF30EFE776
:102270001948007C00F0400008B1B01CC6B21648F6
:10228000007C00F0200008B1B01CC6B21248007CEF
:1022900000F0100008B1B01CC6B20F48007C00F07E
:1022A000080008B1B01DC6B20B4A1268917A0A4AFA
:1022B000526810786B460222FEF7CDFD10B14FF048
:1022C000FF30C5E79DF801009DF8001040EA0129A4
:1022D000B1450BDA0020BBE72800002000000343D3
:1022E000000083423333034233338341FC48406868
:1022F0004088B9EB600F17DDF94A1268517CF84A43
:10230000526810786B460122FEF7A5FD10B14FF020
:10231000FF309DE79DF8000000F0100020B1FFF7AE
:1023200083F96FF0010093E75046FFF7EAFCEC4AAF
:102330001268D17AEA4A526810786B463246FEF744
:102340008AFD10B14FF0FF3082E799FBF6F0401E96
:102350008BF8000000202870B4422AD0E048007CAE
:1023600000F0080028B3601C1DF800001DF80410E0
:1023700040EA012000B2A8F80000E01C1DF800109F
:10238000A01C1DF8000041EA002000B2A8F80200DD
:10239000601D1DF80010201D1DF8000041EA0020FE
:1023A00000B2A8F80400287840F008002870A01DAA
:1023B00084B2B44213D0CA48007C00F0400070B12F
:1023C000601C1DF800001DF8041040EA012000B256
:1023D0003880287840F040002870A01C84B2B442B5
:1023E00013D0BF48007C00F0200070B1601C1DF8C5
:1023F00000001DF8041040EA012000B2788028781F
:1024000040F020002870A01C84B2B44213D0B4481D
:10241000007C00F0100070B1601C1DF800001DF879
:10242000041040EA012000B2B880287840F0100083
:102430002870A01C84B200200AE7F8B504460F46B5
:102440001646A74890F8240010B94FF0FF30F8BDA9
:10245000A348807A10B94FF0FF30F8E7A04A12681D
:10246000917A9F4A526810786B460222FEF7F3FC7D
:1024700010B14FF0FF30EAE79DF801009DF8001021
:1024800040EA0125A54203DA00203070401EDEE755
:10249000934840684088B5EB600F17DD904A12689A
:1024A000517C8F4A526810786B460122FEF7D3FCAC
:1024B00010B14FF0FF30CAE79DF8000000F01000A7
:1024C00020B1FFF7B1F86FF00100C0E7E2B2844B32
:1024D0001B68D97A824B5B6818783B46FEF7BBFCD9
:1024E00010B14FF0FF30B2E795FBF4F0401E3070B2
:1024F0000020ACE701467A4880F82210002070479F
:102500007CB5054676494968087801AB04220D215F
:10251000FEF7A1FC08B107207CBD9DF80700C0F3C1
:1025200001109DF8041001F0E00140EAE1008DF88F
:1025300000009DF80700C0F381009DF8051001F030
:10254000E00140EAE1008DF801009DF8070000F08D
:1025500003009DF8061001F0E00140EAE1008DF86B
:10256000020000241CE01DF8040018B9002045F802
:10257000240013E05B4845F8240006E055F82400E9
:10258000594905F00FFB45F824001DF80400401ED2
:10259000C0B20DF804000028F0D100BF601CC4B226
:1025A000032CE0DB0020B7E72DE9FE4F06460F467F
:1025B00000256846FFF7A4FF002442E056F82400F7
:1025C00057F82410A0EB010ABAF1000F01DB5146C5
:1025D00001E0CAF10001084605F0DCFC83464FF03B
:1025E0008F4105F011FB80465DF82400002105F0C5
:1025F00059FD16D05DF82410404605F005FB8246D3
:102600004FF07E5105F0C8FA814629F0004A37485C
:10261000416A504605F050FD12D20120A04005430A
:102620000EE03248C169404605F03CFD05D32F4815
:10263000016A404605F040FD02D20120A04005435A
:10264000641C032CBADB2846BDE8FE8F2DE9FC5F35
:1026500006460F46002522494968087801AB032247
:102660000D21FEF7F8FB10B10720BDE8FC9F9DF897
:10267000040000F01F008DF804009DF8050000F034
:102680001F008DF805009DF8060000F01F008DF872
:102690000600002462E056F8240057F82410A0EB4E
:1026A000010BBBF1000F01DB594601E0CBF100014A
:1026B000084605F06FFC4FF08F41009005F0A4FA3A
:1026C000814601A8005DC0B30849086805F06BFCAD
:1026D00083465946064805F097FA80460FE0000009
:1026E000280000207B14AE3E1D5A843F0C95000844
:1026F00000B04C45FE49404605F054FA804601A81A
:10270000005D401EC0B201A908550028F2D1414623
:10271000484605F079FA83464FF07E5105F03CFAC1
:1027200082462AF0004BF3488169584605F0C4FC04
:1027300013D20120A04005430FE0FFE7ED480169F7
:10274000484605F0AFFC05D3EA484169484605F024
:10275000B3FC02D20120A0400543641C032C9ADB89
:10276000284682E72DE9F04F87B005460C46914692
:1027700001208DF8100000208DF81100DE4A12684B
:10278000917CDD4A5268107804AB0222FEF718FCF7
:1027900020B14FF0FF3007B0BDE8F08FC82001F046
:1027A0001DFF00208DF81000D34A1268D17BD24A59
:1027B0005268107804AB0122FEF702FC10B14FF012
:1027C000FF30E8E7CC4A12685179CB4A526810785A
:1027D00004AB0122FEF7F4FB10B14FF0FF30DAE753
:1027E000C54A1268917CC44A5268107804AB012231
:1027F000FEF7E6FB10B14FF0FF30CCE7BE4A12689F
:10280000D17DBD4A5268107804AB0122FEF7D8FB97
:1028100010B14FF0FF30BEE7B74A12681179B64ADF
:102820005268107804AB0122FEF7CAFB10B14FF0DA
:10283000FF30B0E70C208DF81000AF4A1268117914
:10284000AD4A5268107804AB0122FEF7B9FB10B113
:102850004FF0FF309FE70F2001F0C0FEA648806ACE
:10286000407A8DF81000A44A12689178A24A526802
:10287000107804AB0122FEF7A3FB10B14FF0FF303C
:1028800089E79D48806A007A8DF810009A4A12689C
:102890005178994A5268107804AB0122FEF790FBF8
:1028A00010B14FF0FF3076E7B9F1000F07D0924832
:1028B000806A807A40F0E0008DF8100004E08E48D5
:1028C000806A807A8DF810008B4A126891798A4A62
:1028D0005268107804AB0122FEF772FB10B14FF082
:1028E000FF3058E7B9F1000F07D08348806AC07AFB
:1028F00040F0E0008DF8100003E07E48C07A8DF8CB
:1029000010007D4A1268D1797B4A5268107804AB76
:102910000122FEF755FB10B14FF0FF303BE7B9F154
:10292000000F02D0C82001F059FE40208DF81000A1
:10293000714A12681179704A5268107804AB01220A
:10294000FEF73EFB10B14FF0FF3024E778208DF802
:102950001000694A12685179674A5268107804ABCE
:102960000122FEF72DFB10B14FF0FF3013E7614954
:10297000888901F033FE00208DF810005E4A12684D
:1029800051795D4A5268107804AB0122FEF718FBBA
:1029900010B14FF0FF30FEE6574A1268917A564A5E
:1029A0005268107804AB0222FEF755FA10B14FF0CE
:1029B000FF30F0E69DF811009DF8101040EA012B61
:1029C0000C209BFBF0F0C6B20020A8606860286075
:1029D000A06060602060824665E0474A1268D17A54
:1029E000454A5268107804AB0C22FEF734FA10B155
:1029F0004FF0FF30CFE69DF811009DF8101040EA2F
:102A0000012000B2ADF808009DF813009DF81210E7
:102A100040EA012000B2ADF80A009DF815009DF8CB
:102A2000141040EA012000B2ADF80C00BDF9081006
:102A3000206808442060BDF90A106068084460609E
:102A4000BDF90C10A0680844A0609DF817009DF81F
:102A5000161040EA012000B2ADF800009DF8190000
:102A60009DF8181040EA012000B2ADF802009DF870
:102A70001B009DF81A1040EA012000B2ADF80400D6
:102A8000BDF90010286808442860BDF90210686884
:102A900008446860BDF90410A8680844A8600AF1F9
:102AA000010000F0FF0AB24597DB1248D0F800C0E1
:102AB0002868C117090441EA10410704624600234F
:102AC000384604F0B5FF32460023CDE9020104F098
:102AD000AFFF28600748D0F800C06868C117090434
:102AE00041EA1041070462460023384606E0000030
:102AF00054E3853F0C9500082800002004F098FF5F
:102B000032460023CDE9020104F092FF6860FE48DE
:102B1000D0F800C0A868C117090441EA10410704B1
:102B200062460023384604F083FF32460023CDE995
:102B3000020104F07DFFA860F348D0F804C02168CA
:102B4000C817000440EA11480F04624600233846C3
:102B5000414604F06DFF32460023CDE9020104F046
:102B600067FF2060E848D0F804C06068C117090416
:102B700041EA1041070462460023384604F058FF3A
:102B800032460023CDE9020104F052FF6060DE48C6
:102B9000D0F804C0A068C117090441EA1041070435
:102BA00062460023384604F043FF32460023CDE955
:102BB000020104F03DFFA060A068002804DDA068C9
:102BC000A0F58030A06003E0A06800F58030A06030
:102BD0000020E0E538B50446CC4890F82400A04237
:102BE00001D1002038BD24B3C84890F8250010B9A1
:102BF0004FF0FF30F6E70020FEF74AFB0020FEF71B
:102C00006FFCC249C88CFEF7DCFE00200090BF4973
:102C1000496808786B4601222321FEF7D1F901218A
:102C2000BA4880F824100120FEF732FBFEF7FCFCC6
:102C300013E00020FEF72CFBB448007C0090B34961
:102C4000496808786B4601222321FEF7B9F9002173
:102C5000AE4880F82410FEF7E7FC0020C2E72DE91B
:102C6000F04F8DB083460F4602200C90A74890F895
:102C7000240020B10020FFF7ADFF012600E0002670
:102C800003A8FFF7E2F905A8FFF7FFF901A8FFF78E
:102C900020FA02A8FFF742FA9C4890F80AA004A87C
:102CA000FFF796FA002407E0002239465846FFF75E
:102CB00059FD00B902E0641C022CF5DB00BF022CB8
:102CC00001D1002528E0002407E0012206A909A877
:102CD000FFF748FD00B902E0641C022CF5DB00BFE1
:102CE000022C01D1002517E006A93846FFF75CFC4D
:102CF00000F0FF0809A95846FFF7A8FC00F0FF09FB
:102D00000025B9F1000F01D145F00105B8F1000F20
:102D100001D145F0020500BFFF207C490872FF2168
:102D20007A484172C1724FF6FF71C181FF218172F1
:102D3000017401210173BDF80C00FEF7D0FE9DF86F
:102D40001400FEF78AFEBDF80400FEF78EFDBDF804
:102D50000800FEF736FE5046FEF75DFB9DF81000BA
:102D6000FEF74EFD16B10120FFF734FF28460DB0E7
:102D7000BDE8F08FF8B504460D46164616B94FF07B
:102D8000FF30F8BD6148807A10B94FF0FF30F8E7A6
:102D900020128DF80000E0B28DF801009DF80100CE
:102DA00028445A4949684989884202DD4FF0FF307A
:102DB000E7E7564A1268117E544A526810786B460B
:102DC0000222FEF7FDF810B14FF0FF30D9E7EAB26A
:102DD0004E4B1B68597D4D4B5B6818783346FEF7A8
:102DE000EFF810B14FF0FF30CBE70020C9E7F8B59E
:102DF00004460D46164616B94FF0FF30F8BD43485D
:102E0000807A10B94FF0FF30F8E720128DF80000FB
:102E1000E0B28DF801009DF8010028443B49496863
:102E20004989884202DD4FF0FF30E7E7374A1268F0
:102E3000117E364A526810786B460222FEF7C0F8BF
:102E400010B14FF0FF30D9E7EAB2304B1B68597D23
:102E50002E4B5B6818783346FDF7FDFF10B14FF03D
:102E6000FF30CBE70020C9E72DE9F04385B00546E8
:102E70000E4690469946254890F8250020B14FF01F
:102E8000FF3005B0BDE8F08316B94FF0FF30F8E72A
:102E9000002423E0281B102801DD102000E0281B5F
:102EA00087B2321939462046FFF764FF10B14FF060
:102EB000FF30E6E701AA39462046FFF798FF10B138
:102EC0004FF0FF30DDE730193A4601A904F005FE66
:102ED00010B16FF00100D4E7E01984B2AC42D9DB45
:102EE0004FEA28208DF8000008F0FF008DF801005F
:102EF000064A1268917E054A526810786B46022293
:102F0000FEF75EF838B103E00C95000828000020B9
:102F10004FF0FF30B5E70121FE4880F82510A0F8FA
:102F200026900020ADE70146FA4890F8240008708A
:102F3000002070474FF0FF30704702464FF0FF30DF
:102F4000704701464FF0FF307047F8B505460F4611
:102F50001446002C70D0B5F5FF5F01DDFF2605E0BB
:102F6000202D01DA012601E0C5F3471607B9012734
:102F7000282C02DD4FF0FF30F8BDE648407D28BB2D
:102F8000E44890F8240038B10020FFF723FE012127
:102F9000E04880F8201003E00021DE4880F820108F
:102FA000DC481630FFF751F8DA481830FFF76DF8B3
:102FB000D8481A30FFF78DF8D6481C30FFF7AEF826
:102FC000D448817A81771F30FFF702F90020FEF79D
:102FD0005FF90020FEF788FC00208DF80000CD4A44
:102FE00012689178CB4A526810786B460122FDF73F
:102FF000E7FF10B14FF0FF30BEE740208DF8000032
:10300000C44A1268D17BC34A526810786B460122C9
:10301000FDF7D6FF00B165E08DF800608DF8017016
:10302000BC4A1268117ABB4A526810786B46022279
:10303000FDF7C6FF08B155E047E0052001F0CEFAE4
:10304000B448407A072101EBC000C0B28DF80000FF
:10305000B04A1268D179AF4A526810786B460122A3
:10306000FDF7AEFF00B13DE020208DF80000012CFF
:1030700003D100208DF801000EE0052C03DC0120B7
:103080008DF8010008E0142C03DC02208DF801000B
:1030900002E003208DF801009DF80100072101EBFB
:1030A0008010C0B28DF801009A4A1268917C994A4A
:1030B000526810786B460222FDF782FF00B111E0E2
:1030C000012194484175002056E7924A16320021AA
:1030D00003E0505C00B105E0491C0C29F9D34FF026
:1030E000FF3049E7FF208B490872FF218948417270
:1030F000C1724FF6FF71C181FF21817201740121FC
:1031000001730146887FFEF786F98249C88AFEF777
:10311000E6FC8049087EFEF7A0FC7E49488BFEF75E
:10312000A4FB7C49888BFEF74CFC7A49C87FFEF7EC
:1031300067FB784890F8200010B10120FFF74AFDA6
:10314000002174484175002016E770B588B002A9C7
:1031500005A8FFF784FD0446032C3ED101A8FEF725
:10316000F3FF059804F016FF0646019904F01AFDD6
:10317000054604F03BFF0590069804F00BFF064659
:10318000019904F00FFD054604F030FF0690079802
:1031900004F000FF0646019904F004FD054604F022
:1031A00025FF079005A800F054FA6846FEF7E9FFEE
:1031B000BDF80010029848430290BDF80010039833
:1031C00048430390BDF8001004984843049002A8B7
:1031D00000F0D2FA002008B070BD0120FBE70146E4
:1031E00091F90020002A01DD00201EE091F9002065
:1031F000002A01DA042018E091F90120002A01DDFB
:10320000012012E091F90120002A01DA05200CE0EA
:1032100091F90220002A01DD022006E091F9022046
:10322000002A01DA062000E00720704710B50446A6
:103230002046FFF7D4FF0346E01CFFF7D0FF43EA28
:10324000C00083B2A01DFFF7CAFF43EA801083B21B
:10325000184610BD70B50024FDF7F5FEFEF781FCA1
:10326000002840D17820FEF7D6F8C4B20CB1012076
:1032700070BD7820FEF7C4FAC4B20CB10220F7E7A3
:103280006420FEF79EFBC4B20CB10320F0E700F00F
:1032900045F9C4B20CB10420EAE71F48FFF7C6FFA6
:1032A000054600F045F9C4B20CB10520E0E740F254
:1032B000731000F07EFDC4B20CB10620D8E7642084
:1032C00000F0F0FAC4B20CB10720D1E7FFF73DFFE0
:1032D00004460CB10820CBE70120FFF77BFCC4B209
:1032E0001CB10920C4E70A20C2E70020C0E72DE98D
:1032F000F04F99B004460D4616464FF07E574FF0FA
:1033000000084FF000094FF0000A12A813A918ABEB
:103310000EAA03E02800002054000020CDE9001090
:1033200014A916A800F0A4FE18B1012019B0BDE838
:10333000F08FBDF84C0000F4807000287ED00E980D
:1033400004F028FE83464FF09D4104F05DFC0746E3
:103350000F9804F01FFE83464FF09D4104F054FC8B
:103360008046109804F016FE83464FF09D4104F00D
:103370004BFC8146119804F00DFE83464FF09D41B1
:1033800004F042FC824639464FF0804004F00AFCCB
:103390004946059004F006FC414607904FF0404036
:1033A00004F000FC5146059004F0FCFB06900799E0
:1033B00004F0A0FB834604F046FECDE9080105F0C9
:1033C00063FD4FF06632544BCDE90A0104F001FD74
:1033D000CDE90C0104F04AFE206049464FF08040E0
:1033E00004F0E0FB4946029004F0DCFB4146049007
:1033F0004FF0404004F0D6FB4146029004F0D2FB6F
:103400000390049904F0C8FB83464FF07E5104F00A
:1034100071FB059004F017FECDE9080139464FF025
:10342000804004F0BFFB4146039004F0BBFB4946DB
:1034300004904FF0804004F0B5FB00E068E0514696
:10344000039004F0AFFB8346049904F053FB05900E
:1034500004F0F9FDCDE90601DDE9082305F05CFF84
:103460004FF066322C4BCDE90A0104F0B2FCCDE9F5
:103470000C0104F0FBFD28605146504604F092FB1D
:1034800049460490484604F08DFB4146039040466F
:1034900004F088FB39460190384604F083FB009025
:1034A000019904F027FB0290039904F075FB834611
:1034B000049904F071FB059004F0C5FDCDE9080105
:1034C0005146384604F06EFB49460490404604F0ED
:1034D00069FB0390049904F00DFB4FF080410590C7
:1034E00004F060FB834604F0AEFDCDE90601DDE9A2
:1034F000082305F011FF4FF06632074BCDE90A01B2
:1035000004F067FCCDE90C0104F0B0FD306001E08F
:1035100002200BE7002009E766A64C4010B5C8233F
:103520004FF48062F74940F6F630FFF79DFC10BD7E
:1035300010B586B00446F4A000680390F3A00068BC
:103540000290F3A000680190F2A00068009004F0DF
:10355000030003A9085C8DF8140003A8C4F3C1019B
:10356000405C8DF8150003A8C4F38111405C8DF810
:10357000160004F0030002A9085C8DF8100002A8F0
:10358000C4F3C101405C8DF8110002A8C4F381119D
:10359000405C8DF8120005AA032140F22640FFF797
:1035A000E9FB18B14FF0FF3006B010BD04AA0321AB
:1035B00040F22A40FFF7DEFB10B14FF0FF30F3E797
:1035C000019805900098049004F0040058B19DF80B
:1035D000140040F001008DF814009DF8100040F038
:1035E00001008DF8100004F0200058B19DF815007E
:1035F00040F001008DF815009DF8110040F0010029
:103600008DF8110004F4807058B19DF8160040F058
:1036100001008DF816009DF8120040F001008DF8B1
:10362000120005AA03214FF48860FFF7A3FB10B135
:103630004FF0FF30B8E704AA032140F23140FFF712
:1036400099FB10B14FF0FF30AEE7B3480481002082
:10365000AAE71FB50446B048007A00F0030054F80A
:1036600020000190AC48007A00F0040010B10198ED
:1036700040420190A848007AC0F3C10054F82000ED
:103680000290A548007A00F0200010B10298404254
:103690000290A148007AC0F3811054F820000390F2
:1036A0009D48008900F4807010B103984042039057
:1036B0009A49019880FB0101800F40EA8100019046
:1036C0009649029880FB0110820042EA91700290B4
:1036D0009249039880FB0110820042EA91700390A6
:1036E0000198000E8DF800000198000C8DF8010083
:1036F0000198000A8DF802000198C0B28DF803000D
:103700006A4604214FF47470FFF734FB18B14FF090
:10371000FF3004B010BD0298000E8DF80000029832
:10372000000C8DF801000298000A8DF80200029842
:10373000C0B28DF803006A4604214FF47570FFF79C
:1037400019FB10B14FF0FF30E3E70398000E8DF83E
:1037500000000398000C8DF801000398000A8DF812
:1037600002000398C0B28DF803006A4604214FF4AA
:103770007670FFF7FFFACCE770B588B0064601A86F
:10378000FEF7FFFCBDF804000021C90341EA5045E3
:10379000C4036148007A00F0030056F82000059049
:1037A0005D48007A00F0040010B105984042059091
:1037B0005948007AC0F3C10056F8200006905648D8
:1037C000007A00F0200010B106984042069052485E
:1037D000007AC0F3811056F8200007904E48008907
:1037E00000F4807010B10798404207900598C11707
:1037F000A0FB042301FB043100FB0510810041EA1A
:10380000927005900698C117A0FB042301FB0431B8
:1038100000FB0510810041EA927006900798C117DD
:10382000A0FB042301FB043100FB0510810041EAE9
:10383000927007900598000E8DF808000598000C0E
:103840008DF809000598000A8DF80A000598C0B2A5
:103850008DF80B000698000E8DF80C000698000CF1
:103860008DF80D000698000A8DF80E000698C0B27B
:103870008DF80F000798000E8DF810000798000CC7
:103880008DF811000798000A8DF812000798C0B251
:103890008DF8130002AA0C214FF42570FFF76AFA85
:1038A00008B070BD30B585B004461DA207CA02AB92
:1038B00007C3C82C03DD4FF0FF3005B030BDC82072
:1038C00090FBF4F0401E85B2280A8DF80000E8B2A3
:1038D0008DF801006A46022140F21620FFF74AFAED
:1038E00010B14FF0FF30E8E702AA0C2140F6C120EA
:1038F000FFF740FA10B14FF0FF30DEE70648848151
:103900000020DAE7349500084CCD6C000CC92C007F
:1039100036567600264666008802002009E3CA0271
:10392000FEF2ABC4AAF1DFDFBBAFDFDF0146FC482C
:1039300080890880002070472DE9FC4706460F4625
:1039400006F0070010B1B7F5C86F03DD4FF0FF3088
:10395000BDE8FC87384604F026FB8146F14904F0B7
:1039600053F980466846FEF790FB9DF80000022858
:1039700006D0042816D0082826D0102848D135E0D3
:103980004FF08D41404604F00DF9814604F047FBAD
:1039900084B2E549404604F005F9814604F03FFB56
:1039A00085B238E04FF08C41404604F0FBF8814688
:1039B00004F035FB84B2DD49404604F0F3F881465B
:1039C00004F02DFB85B226E04FF08B41404604F019
:1039D000E9F8814604F023FB84B2D549404604F05F
:1039E000E1F8814604F01BFB85B214E04FF08A41F8
:1039F000404604F0D7F8814604F011FB84B2CD496B
:103A0000404604F0CFF8814604F009FB85B202E09D
:103A10004FF0FF309CE700BF20128DF80400E0B2A9
:103A20008DF8050028128DF80600E8B28DF8070021
:103A300006F00100A0B101AA02214FF4EA70FFF7DD
:103A400099F910B14FF0FF3082E70DF10602022123
:103A50004FF49270FFF78EF910B14FF0FF3077E717
:103A600006F00200A0B101AA02214FF4EC70FFF7AA
:103A700081F910B14FF0FF306AE70DF10602022123
:103A80004FF49470FFF776F910B14FF0FF305FE715
:103A900006F00400A0B101AA02214FF4EE70FFF776
:103AA00069F910B14FF0FF3052E70DF10602022123
:103AB0004FF49670FFF75EF910B14FF0FF3047E713
:103AC000002045E738B504460020009004F00100CE
:103AD00020B19DF8000040F03000009004F002009A
:103AE00020B19DF8000040F00C00009004F00400AC
:103AF00020B19DF8000040F0030000906A460121CB
:103B00004FF4A470FFF736F938BD38B50446012CE0
:103B100001DA012402E0042C00DD0424601EC0B29E
:103B200000906A46012140F24F10FFF723F938BD9B
:103B300038B50446052094FBF0F085B228128DF8C4
:103B40000000E8B28DF801006A4602214FF4EF70E0
:103B5000FFF710F938BD38B50446052094FBF0F0A6
:103B600085B228128DF80000E8B28DF801006A468F
:103B700002214FF4ED70FFF7FDF838BDF8B50546AA
:103B80000E464FF47A7095FBF0F000FB06F4200E21
:103B90008DF80000200C8DF80100200A8DF802003D
:103BA000E0B28DF803006A4604214FF4AE70FFF7CF
:103BB000E1F8F8BD38B50446052094FBF0F084B276
:103BC00020128DF80000E0B28DF801006A46022153
:103BD0004FF4AD70FFF7CEF838BD38B50446052078
:103BE00094FBF0F084B220128DF80000E0B28DF862
:103BF00001006A4602214FF4AC70FFF7BBF838BDF4
:103C000038B5044614B94FF0FF3038BD6A46042178
:103C10004FF45870FFF7EBF810B14FF0FF30F4E7B6
:103C20009DF8000000069DF8011040EA01409DF853
:103C3000021040EA01209DF8031008432060002094
:103C4000E3E738B50446200E8DF80000200C8DF80F
:103C50000100200A8DF80200E0B28DF803006A46E8
:103C600004214FF45870FFF785F838BD38B5044685
:103C700014B94FF0FF3038BD6A4604214FF471701B
:103C8000FFF7B5F810B14FF0FF30F4E79DF80000F2
:103C900000069DF8011040EA01409DF8021040EA3C
:103CA00001209DF80310084300EB80008000206095
:103CB0000020E0E738B504461420B4FBF0F4200EF1
:103CC0008DF80000200C8DF80100200A8DF802000C
:103CD000E0B28DF803006A4604214FF47170FFF7DB
:103CE00049F838BD38B5044664B120208DF800008D
:103CF00028208DF8010030208DF8020038208DF842
:103D0000030004E0A3220421684603F0C2FE6A46D1
:103D1000042140F69E20FFF72DF8FDF785FC38BD05
:103D20008802002000004843000040460000C045D3
:103D3000000040450000C04438B5044664B1C020CE
:103D40008DF80000C2208DF80100C4208DF802001B
:103D5000C6208DF8030004E08B220421684603F09E
:103D600098FE6A46042140F69820FFF703F8FDF715
:103D70005BFC38BD3EB504466CB1FDA1D1E9002025
:103D80008968CDE9002002916A4609214FF49760C5
:103D9000FEF7F0FF3EBDF9A2D2E900109268CDE92E
:103DA000010200916A4609214FF49760FEF7E2FF95
:103DB000F0E73EB5044602208DF80000CA208DF8D9
:103DC0000100E3208DF8020009208DF803006A4607
:103DD00004216820FEF7CEFFA3208DF8000004F038
:103DE000400048B1C0208DF80100C8208DF80200C5
:103DF000C2208DF8030006E0A3208DF801008DF8A5
:103E000002008DF8030004F4C07048B1C4208DF89E
:103E10000400CC208DF80500C6208DF8060006E0D1
:103E2000A3208DF804008DF805008DF80600A3206E
:103E30008DF807008DF808008DF809006A460A2100
:103E400040F6A720FEF796FF04F0030018B12020EB
:103E50008DF8000002E0D8208DF800006A460121AC
:103E600040F6B620FEF786FF04F0200018B10120CE
:103E7000FFF780FF02E00020FFF77CFF04F4C07032
:103E800008B304F4807060B1B2208DF800008B207C
:103E90008DF80100B6208DF802009B208DF80300FC
:103EA0000BE0B0208DF8000080208DF80100B420D8
:103EB0008DF8020090208DF803006A46042140F638
:103EC000A220FEF757FF04F0010020B3F8208DF880
:103ED00000006A4601214FF40B60FEF74BFFFA2108
:103EE0000720FFF729FD0720FFF7ECFD0120FFF772
:103EF0000CFE6420FFF71CFE4FF4FA70FFF72BFE58
:103F0000C821A148FFF73AFE2820FFF753FE0A20F8
:103F1000FFF763FE08E0D8208DF800006A46012113
:103F20004FF40B60FEF726FF04F0020018B1D92011
:103F30008DF8000002E0D8208DF800006A460121CB
:103F400040F23D70FEF716FF04F0040018B10120A6
:103F5000FFF7F2FE02E00020FFF7EEFE04F0100093
:103F600018B10120FFF7BEFE02E00020FFF7BAFE05
:103F700044F0080085494881FDF756FB002083493D
:103F8000887304F0400018B10846807B801D887358
:103F900004F4C07020B17D48807B801D7B4988730C
:103FA00004F0140020B17948807B10307749887381
:103FB00004F0030020B17548807B001D73498873AD
:103FC00000203EBD014671484089088000207047AE
:103FD0002DE9F0410446E07800F0C006E07800F0FA
:103FE0003F05607800F0010098B1EF102846E9170E
:103FF00005EB5171C910A5EBC101491C01F0FF0887
:104000006248006820B161484146026838469047DE
:1040100000BF607800F0080030B15C48406818B11B
:10402000B0115A4A516888470020BDE8F08110B5A8
:1040300086B0044656A207CA03AB07C357A207CAF5
:104040008DE80700012C09D0022C0ED103AA0B2108
:1040500040F68220FEF78EFE06B010BD6A460B21A8
:1040600040F68220FEF786FEF6E74FF0FF30F3E7DA
:104070002DE9F04F8DB00746884615469946DDE993
:10408000166B0024002030804049887B5A4605A9E1
:10409000FEF7D3F918B1601E0DB0BDE8F08F3B48B4
:1040A000807A00F01400002861D09DF8140000060A
:1040B0009DF8151040EA01409DF8161040EA0120D5
:1040C0009DF81710084328609DF8180000069DF819
:1040D000191040EA01409DF81A1040EA01209DF8AD
:1040E0001B10084368609DF81C0000069DF81D1019
:1040F00040EA01409DF81E1040EA01209DF81F1083
:104100000843A8609DF8200000069DF8211040EAB1
:1041100001409DF8221040EA01209DF82310084339
:10412000E86004F11000C4B22868001401906868C7
:1041300000140290A86800140390E868001404902A
:1041400001984043029901FB0100039901FB010022
:10415000049901FB010ABAF1706F02DBBAF1885FC2
:1041600022DDFDF761FA00203080401E94E721E057
:10417000B8AAB38DB4980D355D000000B8AAAAAAFC
:10418000B088C3C5C700000009E3CA028802002046
:10419000D8B1B9F38BA391B609B4D900DAB1B9F3A8
:1041A0008BA391B6DAB4DA00B6F9000040F480705F
:1041B000308000BF3448807A00F0400020B305A969
:1041C000601C085C095D40EA012000B2A8F800000C
:1041D00005A9E01C095C05AAA01C105C41EA0020AE
:1041E00000B2A8F8020005A9601D095C201D105C42
:1041F00041EA002000B2A8F80400A01DC4B2B6F93C
:10420000000040F0080030801F48408900F4C07072
:1042100008B305A9601C085C095D40EA012000B2F2
:10422000388005A9E01C095C05AAA01C105C41EAC5
:10423000002000B2788005A9601D095C201D105C7B
:1042400041EA002000B2B880A01DC4B2B6F9000057
:1042500040F0700030800C48807A00F0030018B104
:1042600005A90819FFF7B4FE4846FDF74AFD0020EE
:1042700012E70146044801600020704701460248E9
:1042800041600020704700008802002008B501212D
:10429000082000F0F7FF4FF48050ADF80000102028
:1042A0008DF8030003208DF8020069462F4800F0C6
:1042B0002DFD4FF40050ADF8000004208DF80300F0
:1042C00003208DF802006946284800F01FFD08BD54
:1042D00070B500264FF48051244800F0C6FD00243C
:1042E00008E0761C2248864204D922A004F0D0F8C7
:1042F000002070BD4FF400511C4800F09AFD0028CA
:10430000EFD1012000F04EF9002519E04FF4805163
:10431000164800F0A8FD6400012000F043F94FF4B6
:104320008051124800F0A1FD4FF400510F4800F0F9
:1043300080FD00B1641C012000F034F9681CC5B296
:10434000182DE3DB4FF48051084800F08CFD84F415
:104350000004012000F026F94FF48051034800F0DA
:1043600084FD012000F01EF92046C2E7000C014048
:1043700020BF0200D1B9C1A6B4ABB8D0C6F7D2D124
:10438000CBF0BBB5A1A3A1A3A1A3000010B500244D
:104390005B4801F01BF9C4B25A485B4909784454A0
:1043A00059480078401C5849087008460078C828C9
:1043B00001DD0020087010BD002004E00021514AFA
:1043C0001154411C88B2C828F8DB00214E4A1170F4
:1043D000704710B5044621464A4803F06CFB08B10B
:1043E000012010BD0020FCE72DE9F04104460D46F8
:1043F0001646A046FFF7E0FF002727E02846FFF714
:10440000E8FFF8B94148007800BB44460BE000BF24
:1044100040213B4801F044F90028F9D02178384880
:1044200001F0D0F8641C20780028F0D138A000F00A
:10443000B3FB002037490870374806700120334924
:10444000087003E00127002030490870002FD5D004
:10445000FFF7B2FFBDE8F08110B503222FA130A015
:10446000FFF7C2FF03222DA12FA0FFF7BDFF0322FC
:104470002AA130A0FFF7B8FF10BD10B5032233A169
:1044800033A0FFF7B1FF3548006800F085FB1A2123
:104490001B4801F097F81EA000F07EFB10BD70B520
:1044A00000250026FFF788FF26E06D1C052D01DDA5
:1044B000002070BDFFF780FF29A000F06DFB14A065
:1044C00000F06AFB41F2883000F088F8002410E028
:1044D0000C48005D3A280AD10A49201D085C3128A1
:1044E00003D0201D085C352801D1012603E0601CA3
:1044F000C4B2C82CECDB00BF002ED6D00120D8E718
:104500000044004098020020650000206700002061
:104510000D0A000064000020660000204F4B0000E0
:10452000415445300000000041542B434D47463D67
:104530003000000041542B43504D533D22534D2237
:104540002C22534D222C22534D2200003E0000000D
:1045500041542B434D47533D32370000600000204B
:1045600041542B435245473F000000004FF0E021EB
:10457000096921F004014FF0E0221161C21700EB3C
:104580005272C2F3C702234B1A701946097801EB25
:104590004102C2EBC1114FF6FF7202EAC1011E4A8D
:1045A0001180704701461B4A12784A434FF0E023BE
:1045B0005A6100229A6101221A6100BF4FF0E02285
:1045C000106900F001021AB100F48032002AF5D01F
:1045D00000224FF0E0231A619A61704701460E4AAB
:1045E00012884A434FF0E0235A6100229A61012267
:1045F0001A6100BF4FF0E022106900F001021AB109
:1046000000F48032002AF5D000224FF0E0231A6136
:104610009A617047680000206A000020A64A0A409C
:104620000243A64B1A6070470146072323EA0102A2
:104630001202A24B1B1D18684FF6FF031840A04B37
:10464000184310439D4B1B1D186070472DE9F04126
:104650000746884614461D462846FFF7E5FFC5F184
:10466000040007FA00F60F20284100EA080006437C
:1046700006F00F06E21704EBD2625211920002F12B
:10468000E022D2F800212146E31704EBD3635B114B
:10469000A4EB431C012303FA0CF31A432046E3174F
:1046A00004EBD3635B119B0003F1E023C3F800210B
:1046B0008448005D40EA061082490855BDE8F08153
:1046C00070B504460B46CE1701EB9676C6F387000D
:1046D000CE1701EB9676B610A1EB8606B606350E20
:1046E000794B9B6943F00103774EB3614FEAB633D0
:1046F00053F820300F26AE40B343744E46F82030B6
:10470000334653F8203004FA05F61E436F4B43F846
:1047100020606F4B1B6801268E4033436C4E336024
:1047200002F0010343B16A4B0C331B6801268E4033
:104730003343674E0C36336002F0020343B1644BDF
:1047400008331E6801238B401E43614B08331E60F3
:1047500070BD00B500205C490861C8601420486144
:1047600000208861C8610846006840F001000860C8
:104770000846406857490840534948600846006861
:1047800055490840504908600846006820F48020D8
:1047900008600846406820F4FE00486000208860F9
:1047A00000214FF00060FFF739FF00BD30BF7047B8
:1047B00072B6704762B6704700B54048083000686E
:1047C00040F004003D49083108603F48C06940F0AE
:1047D00080503D49C8614148406840F480703F497D
:1047E00048600846006840F0040008600846006819
:1047F00040F002000860FFF7D9FF00BD3048001DFF
:104800002E49091D08607047014649062E4A9269E3
:1048100042F001022C4B9A612C4A083A526822F06D
:10482000E0622A4B083B5A601A4652680A435A60B3
:10483000704730B504460025FFF78BFF224800681B
:1048400040F480302049086000BF1F480068400CD9
:104850000028FAD04FF480601B494860A01EC4B203
:104860000846406840EA844048600846406840F492
:10487000803048601A48006840F0320018490860EB
:104880001148006840F080700F49086000BF0E4872
:104890000068400E0028FAD00B48406840F0020043
:1048A0000949486005E008484068C0F3870505F0FD
:1048B0000305022DF7D130BD80FFFF1F08ED00E09A
:1048C0000000FA0500E400E000100240080001408A
:1048D000000401400000FFF8FFFFF6FE00700040FA
:1048E00000200240014600BF704700BFC44A128842
:1048F00002F04002002AF9D0C2B2C14B1B1D1A803F
:104900007047BF49098801F0200111B3BC49091D56
:104910000988C8B2BB49098801F40041C9B9B9493D
:10492000098801F4804161B10A2803D00021B54A09
:10493000118020E0B349098841F40041B14A118057
:1049400019E00D2806D1AF49098841F48041AD4AEC
:10495000118010E0AB490988C1F30D01AA4A5054F7
:10496000A8490988491CA74A118011460988C72906
:1049700001DD0021118070472DE9F05F05460E46EC
:10498000300103F010FB8146A04905FB01F003F064
:104990000AFB8246494603F037F90746384603F0DA
:1049A0003EFB84B2204603F0FEFA8346394603F00C
:1049B000F6F882464FF0834103F0F4F8814603F0A5
:1049C0002EFB80464FF6FF7000EA041404EB08004B
:1049D00084B28F48806940F004008D4988610846A0
:1049E000806940F4804088618A48006820F47F60D4
:1049F000884908600846006840F40B6008608448F5
:104A0000C06840F480408249C8600846C06820F40D
:104A10008040C8607A4808300480001D008842F257
:104A20000C01084376490C3108800846008840F0A4
:104A3000200008800223252203210846FFF706FEF6
:104A4000BDE8F09F10B586B004460121480400F08F
:104A500026FC0121042000F015FC6F4800F076FCD4
:104A60000420ADF8140018208DF8170003208DF8ED
:104A7000160005A96748001F00F048F90820ADF8A6
:104A8000140004208DF8170005A96248001F00F0EB
:104A90003DF901940020ADF80800ADF80A00ADF82A
:104AA0000C00ADF810000C20ADF80E0001A95A481A
:104AB00000F08FFC26208DF8000001208DF8010009
:104AC00000208DF8020001208DF80300684600F0F8
:104AD00046FE012240F225514F4800F012FD01210F
:104AE0004D4800F002FD40214B4800F0E6FD06B0C5
:104AF00010BD10B586B004460121102000F0C2FBA5
:104B00000121C80400F0CBFB4FF48060ADF8140025
:104B100018208DF8170003208DF8160005A93F48CE
:104B200000F0F4F84FF40060ADF8140004208DF8A4
:104B3000170005A9394800F0E9F801940020ADF804
:104B40000800ADF80A00ADF80C00ADF810000C201C
:104B5000ADF80E0001A9324800F03BFC4FF4A06014
:104B600000F0F8FD34208DF8000000208DF80100E1
:104B70008DF8020001208DF80300684600F0EFFD7B
:104B8000012240F22551264800F0BBFC01212448B7
:104B900000F0ABFC06B010BD10B504460BE000BF42
:104BA00040211D4800F07CFD0028F9D014F8011BBD
:104BB000194800F007FD20780028F0D100BF4021FF
:104BC000154800F06DFD0028F9D010BD10B5044661
:104BD0002146144800F0F6FC00BF4021114800F0C7
:104BE0005FFD0028F9D010BD10B5044603E014F8AD
:104BF000010BFFF7EBFF20780028F8D110BD000073
:104C000000380140700000206003002040420F0087
:104C10000010024004080140004400400010014020
:104C2000004C0040004800400648804706480047C6
:104C3000FEE7FEE7FEE7FEE7FEE7FEE7FEE7FEE74C
:104C4000FEE7FEE7B30900083101000810B504468D
:104C5000CC48844208D10121042000F02DFB002122
:104C6000042000F029FB46E0C748844208D1012116
:104C7000082000F021FB0021082000F01DFB3AE095
:104C8000C248844208D10121102000F015FB002108
:104C9000102000F011FB2EE0BD48844208D1012114
:104CA000202000F009FB0021202000F005FB22E07D
:104CB000B848844208D10121402000F0FDFA0021CB
:104CC000402000F0F9FA16E0B348844208D10121EF
:104CD000802000F0F1FA0021802000F0EDFA0AE0D7
:104CE000AE48844207D10121801500F0E5FA002189
:104CF000A01500F0E1FA10BD10B50121084600F042
:104D0000DBFA0021012000F0D7FA10BD2DE9F041B7
:104D1000024600250026002000230024002791F8E9
:104D200003C00CF00F0591F803C00CF0100CBCF19F
:104D3000000F03D091F802C04CEA050591F800C0BD
:104D4000BCF1000F31D0146800202BE04FF0010CB3
:104D50000CFA00F3B1F800C00CEA03069E4220D121
:104D600083004FF00F0C0CFA03F7BC4305FA03FC69
:104D70004CEA040491F803C0BCF1280F06D14FF0AF
:104D8000010C0CFA00FCC2F814C00AE091F803C050
:104D9000BCF1480F05D14FF0010C0CFA00FCC2F831
:104DA00010C0401C0828D1D31460B1F800C0BCF179
:104DB000FF0F34DD546800202EE000F1080C4FF0A6
:104DC000010808FA0CF3B1F800C00CEA03069E4291
:104DD00021D183004FF00F0C0CFA03F7BC4305FA06
:104DE00003FC4CEA040491F803C0BCF1280F05D180
:104DF00000F1080C08FA0CF8C2F8148091F803C00E
:104E0000BCF1480F07D100F1080C4FF0010808FA77
:104E10000CF8C2F81080401C0828CED35460BDE8BE
:104E2000F0814FF6FF710180022181700421C17071
:104E300070470246002093680B400BB1012000E050
:104E4000002070470146886880B270470246002003
:104E5000D3680B400BB1012000E0002070470146F1
:104E6000C86880B2704701617047416170470AB1FC
:104E7000016100E041617047C16070474FF48032CA
:104E80000A43826181618261826982697047024658
:104E90000020434B18684FF68073184040EA021018
:104EA00008433F4B186070473E49C8617047F0B5F2
:104EB0000A46002300240021002500F00046B6F138
:104EC000004F02D1364EF16901E0354E7168C0F3F2
:104ED000034583B200F44016B6F5401F08D121F017
:104EE00070612F4E766826F070662D4F7E6012E05E
:104EF00000F48016B6F5801F06D1032606FA05F4E5
:104F0000A14341F0706106E0460D360103FA06F652
:104F1000B14341F0706122B1460D360103FA06F645
:104F2000314300F00046B6F1004F02D11C4EF16152
:104F300001E01B4E7160F0BD30B500228B071C0FE5
:104F40000F2303FA04F2164B08338C1053F8243065
:104F50009343134C08348D1044F8253023468C10AD
:104F600053F824308C07240F00FA04F423430C4C2C
:104F700008348D1044F8253030BD0A49DC31086012
:104F80007047000000080140000C01400010014083
:104F90000014014000180140001C014000200140A5
:104FA0000000014000002042DF48006840F001009E
:104FB000DD49086008464068DC490840DA49486035
:104FC00008460068DA490840D74908600846006882
:104FD00020F4802008600846406820F4FE00486005
:104FE0004FF41F0088607047CF49096821F4803171
:104FF000CD4A11601146096821F480211160B0F595
:10500000803F03D0B0F5802F0ED106E0C649096875
:1050100041F48031C44A116007E0C349096841F492
:10502000A021C14A116000E000BF00BF704710B569
:1050300001460022002300204A11012A02D1BA4C65
:10504000236806E0022A02D1B74C236A01E0B64C7D
:10505000636A01F01F02012494401C400CB101203E
:1050600000E0002010BD38B500200090002400258D
:1050700000BF3120FFF7DBFF05460098401C009081
:105080000098B0F5A06F01D0002DF2D03120FFF7CD
:10509000CEFF08B1012400E00024204638BD0146BF
:1050A0000020A14A106820F0F80040EAC10010601A
:1050B0007047A04908607047024600209A4B586824
:1050C00020F47C1042EA01031843974B5860704764
:1050D00098490866704701460020934A506820F0BE
:1050E00003000843506070478F48406800F00C0090
:1050F0007047014600208C4A506820F0F0000843B9
:105100005060704701460020874A506820F4E060F4
:1051100008435060704701460020834A506820F4DD
:10512000605040EAC1005060704729B17E4A527A0F
:1051300002437D4B5A7204E07B4A527A82437A4B97
:105140005A7270477B49D831086070470146002089
:10515000754A506820F44040084350607047002171
:10516000714A20321170704A82F82010012802D052
:1051700004280AD104E001216B4A2032117005E0B5
:105180000521694A2032117000E000BF00BF70475E
:105190006949086070476449096A0143624A1162BB
:1051A0007047654944390860704730B500210022D6
:1051B000002400235C4D6D6805F00C0121B1042929
:1051C00005D0082923D105E05C4D056022E05B4D48
:1051D00005601FE0544D6D6805F47012524D6D6806
:1051E00005F48034022505EB92421CB9544D554319
:1051F00005600BE04C4D6D6805F400351DB1504D58
:105200005543056002E04D4D5543056002E04B4DAE
:10521000056000BF00BF444D6D6805F0F00109094D
:10522000484D6B5C0568DD4045603F4D6D6805F499
:10523000E061090A434D6B5C4568DD4085603A4D8D
:105240006D6805F46051C90A3E4D6B5C4568DD40F0
:10525000C560354D6D6805F44041890B3A4D6B5C76
:10526000C568B5FBF3F5056130BD29B12E4A526919
:1052700002432D4B5A6104E02B4A526982432A4B68
:105280005A61704729B1284A92690243264B9A61B4
:1052900004E0254A92698243234B9A61704729B101
:1052A000214AD2690243204BDA6104E01E4AD269E6
:1052B00082431D4BDA61704729B11B4AD268024311
:1052C000194BDA6004E0184AD2688243164BDA6060
:1052D000704729B1144A12690243134B1A6104E062
:1052E000114A12698243104B1A61704712494039C2
:1052F000086070470F49C86470470B49C871704710
:105300000948406A40F0807007494862704701468A
:105310000020054A92680A400AB1012000E00020FE
:105320007047014988727047001002400000FFF882
:10533000FFFFF6FE000042428004424200127A0063
:1053400000093D00740000208400002010B50446D0
:10535000FB48844209D101218803FFF7ADFF0021FA
:105360004FF48040FFF7A8FF32E0F648844209D1AD
:1053700001214804FFF7ADFF00214FF40030FFF793
:10538000A8FF25E0F048844209D101218804FFF7F5
:10539000A0FF00214FF48020FFF79BFF18E0EB48AF
:1053A000844209D10121C804FFF793FF00214FF483
:1053B0000020FFF78EFF0BE0E548844208D1012171
:1053C0000805FFF786FF00214FF48010FFF781FFEB
:1053D00010BD2DE9F04786B005460E460024A246D2
:1053E00000BFA1460027B08900B100BF2F462C8A1C
:1053F0004CF6FF700440F08804432C82AC894EF6D2
:10540000F3100440B088318908437189084304438C
:10541000AC81AC8A4FF6FF400440B0890443AC82B3
:1054200001A8FFF7C2FEC648874202D1DDF810A0EE
:1054300001E0DDF80CA0A88900F4004040B10AEBBF
:10544000CA0000EB0A1031684900B0FBF1F807E030
:105450000AEBCA0000EB0A1031688900B0FBF1F8D2
:105460006420B8FBF0F004012009642101FB1089DD
:10547000A88900F4004040B1322000EBC900B0FB25
:10548000F1F000F00700044308E0322000EB0910BF
:105490006421B0FBF1F000F00F0004432C8106B052
:1054A000BDE8F0874FF41651016000218180C18072
:1054B00001810C21418100218181704710B5024694
:1054C0000020108A4FF2FF0318400B884C882343BA
:1054D0008C882343CC8823431843108210BD0021BD
:1054E000018041808180C180704721B1828942F46E
:1054F0000052828104E082894DF6FF731A40828156
:105500007047F0B50346002400260025002040F631
:105510006A17B94200D100BF1846C1F3421401F026
:105520001F06012707FA06F5012C01D10C3004E013
:10553000022C01D1103000E014301AB107682F435B
:10554000076002E00768AF430760F0BD1AB1838AC5
:105550000B43838202E0838A8B4383827047028AF3
:105560004FF6F0731A400282028A0A4302827047A1
:1055700082894FF2FF731A40828182890A438281B5
:10558000704721B1828942F00202828104E082895F
:105590004FF6FD731A4082817047028A4FF6DF731F
:1055A0001A400282028A0A430282704721B1028AAB
:1055B00042F48042028204E0028A4BF6FF731A40F2
:1055C00002827047C1F308028280704701468888D2
:1055D000C0F308007047818941F001018181704763
:1055E000028BD2B20283028B42EA0122028370470D
:1055F000028B02F47F420283028B0A4302837047CC
:1056000021B1828A42F02002828204E0828A4FF62F
:10561000DF731A408282704721B1828A42F0100201
:10562000828204E0828A4FF6EF731A4082827047CA
:1056300021B1828A42F00802828204E0828A4FF617
:10564000F7731A408282704721B1828942F4004286
:10565000828103E08289C2F30E028281704721B108
:10566000828A42F40062828204E0828A4FF2FF73EF
:105670001A4082827047828A4FF6FB731A408282F8
:10568000828A0A438282704721B1828A42F00202F2
:10569000828204E0828A4FF6FD731A40828270474C
:1056A00002460020B1F5007F00D100BF13880B40F7
:1056B0000BB1012000E00020704701F40072B2F548
:1056C000007F00D100BFCA430280704770B5024618
:1056D000002400230025002040F66A16B14200D1C4
:1056E00000BFC1F3421501F01F03012606FA03F3C0
:1056F000012D02D19689334006E0022D02D1168A8F
:10570000334001E0968A33400C12012606FA04F475
:105710001688344013B10CB1012000E0002070BDA8
:1057200010B50022002340F66A14A14200D100BF48
:105730000A1201249440A3B2DC43048010BD00008F
:10574000003801400044004000480040004C004048
:105750000050004031490143314A1160704770B533
:10576000002100230F22C47804B32D4C246804F4D4
:10577000E064C4F5E064210AC1F10403CA4044783E
:1057800004FA03F18478144021430901254C06787A
:10579000A155047804F01F050124AC4005786D1173
:1057A000AD0005F1E025C5F8004109E0047804F0FA
:1057B0001F050124AC401C4D0678761145F82640A3
:1057C00070BD1A4A0A400243154B1B1F1A607047EE
:1057D00039B1134A121D12680243114B1B1D1A6086
:1057E00006E00F4A121D126882430D4B1B1D1A6002
:1057F0007047042808D14FF0E021096941F0040105
:105800004FF0E022116107E04FF0E021096921F03B
:1058100004014FF0E0221161704700000000FA051A
:105820000CED00E000E400E080E100E080FFFF1FFD
:10583000002044490860091D0860091D0860091D11
:10584000086041483F4914310860704700213D49D4
:105850008279002A3AD00A46126803689A430B46B6
:105860001A600A1D126803689A430B1D1A600279B8
:1058700011440A6803681A430A60324A08321268FF
:1058800003689A432F4B08331A601A1D1268036885
:105890009A432C4B0C331A604279102A0ED11A1FEE
:1058A000126803681A43274B08331A601A1D1268DE
:1058B00003681A43234B0C331A600DE021494279E7
:1058C00011440A6803681A430A6005E0027911442A
:1058D0000A6803689A430A607047002101600171F9
:1058E0000C214171002181717047164910310968FE
:1058F0000143144A10321160704701460020114ADA
:10590000143212680A400AB1012000E000207047FA
:105910000C49143108607047014600200022094BF1
:105920001B6803EA0102074B14331B680B4013B1D9
:105930000AB1012000E000207047024914310860DC
:105940007047000000040140FFFF0F0010B504463F
:105950002CB90120F64909680882002010BDF549DC
:10596000096808688047F24800680A30F6E710B511
:10597000EF480068C078F0494978884213DCEC4869
:105980000068807878B9EA480068808858B9E848A3
:105990000068C078E64909688872E649096848687D
:1059A0008047002010BD0220FCE710B504462CB94A
:1059B0000120DF4909680882002010BDDD4909681F
:1059C00088688047DA4800680C30F6E710B5D84B95
:1059D0001B68D978D64B1B685879D84B1B689A69D5
:1059E00090470446D2480068807AE8B13CB9D04874
:1059F0000068007918B9CE480068807808B10220A4
:105A000010BD8CB9CB490968C8688047C848006890
:105A10004079C7490968C872C5480068C078C44958
:105A2000096808730020EBE70220E9E710B5044697
:105A30002CB90220BE4909680882002010BD002050
:105A4000BF490880BA480068007800F07F0018BBA2
:105A5000B7490968487A00F0200131B1B84909789E
:105A600041F00201B64A117005E0B549097801F02C
:105A7000FD01B34A117000F0400131B1B04909781D
:105A800041F00101AE4A117005E0AD49097801F01D
:105A9000FE01AB4A11703AE0A5480068007800F0BA
:105AA0007F00012801D1A648C8E7A1480068007816
:105AB00000F07F00022828D19D4A1268517901F038
:105AC0000F0001F080027AB19E4B03EB8002D2F806
:105AD000002C02F03002102A16D1994A127842F0B6
